:10000000005A00201181020099650000897F0200DA
:10001000A70B0000000000000000FFFF54000000DC
:1000200004180F00000000000000000000000000A5
:1000300000000000000000000000000000000000C0
:10004000000000000000000000000000750100003A
:1000500000000000005A0020118102009965000094
:10006000897F0200A70A0A010001000004180FACF2
:100070008067750100000000000000000000000023
:100080000000000000000000000000000000000070
:10009000000000000000000000000000FFFFFFFF64
:1000A000FFFFFFFFFFFFFFFF0070030000000000E5
:1000B00000000000FFFFFFFFFFFFFFFF1100000037
:1000C0000000000000000000000000000000000030
:1000D000000000000000000000000000EC7F002095
:1000E000EC7F0020005A002050DB02006A810200F1
:1000F000A0500020D41000200000040000000000E8
:10010000005A00201181020099650000897F0200D9
:1001100095BF00008D7F0200917F0200000000006B
:10012000000000000000000000000000FF0C0000C4
:10013000957F0200730400004F300000BF340000C0
:1001400019C10000D51801001D2C00006913010021
:1001500011190100DB180100DD180100D71801009A
:10016000EF0201005B050100290E0000093C0000C0
:100170009D7F02009D7F02009D7F02009D7F020007
:100180009D7F0200690501009D7F02009D7F0200A6
:100190009D7F02009D7F02009D7F02009D7F0200E7
:1001A0009D7F02009D7F02009D7F020013190100C8
:1001B000D918010023320000431901009D7F02007D
:1001C000518002009D7F020080B5012000F02CF9D3
:1001D000134800F0BDF81349087001BD80B500F068
:1001E00037F9012805D00F480078BDE8024000F03B
:1001F0009AB801BD80B519B900F02AF8002002BDF7
:10020000B1F1004F02D200F02DF8F7E7022002BD55
:10021000B1F5000F3CBF0902FFF7ECBF02207047A9
:100220006C8202001B7B00200220704738B54478A6
:10023000456800F015F90C214C437D497D4B0A5966
:10024000521B9A4238BF0D51BDE8324000F00EB942
:1002500010B500F065F86060042020702046BDE80D
:100260001040E3E738B504460D4600F035F92D1887
:100270006560012020702046BDE83240D6E770B5A9
:1002800000F04EF8054600F0EBF8064660680022E4
:100290006FF0004100F007F8451925603046BDE8D1
:1002A000704000F0E3B8F8B505460E46144600F07D
:1002B00013F9024600239CB1FF20207010E008785B
:1002C00060B1042811D048685A4F111AB9420CD3B2
:1002D000801AB04202D2064604B123705B1C083576
:1002E00029680029EBD13046F2BD04B1237000200B
:1002F000F2BD38B500F014F805460DE0017851B1B3
:10030000042904D041684B4A691A914203D204235C
:10031000037061688847083420680028EED131BD39
:10032000044600F0D9B810B5FFF7FAFF0C22544389
:100330003F4A404B1159401A984207D21444606812
:10034000FFF7D7FF2046BDE8104098E710BD00003A
:1003500070B5394E394A137804467078984204D300
:100360005FF0F00136A000F023F97578304A691C7F
:1003700071702B460C204343D11801264C600E723D
:1003800000E0457054F8080B0028FAD10846FFF742
:1003900076FF284670BD0000F8B54FF0FF310091A0
:1003A0000C24234D05F10801604300220A54224B1E
:1003B00093F8000068B300F0F5F920B940F2291174
:1003C0001FA000F0F5F800F087F8024600261A4B4F
:1003D000DFF860C05978F0B2884211D260432958E2
:1003E000571A674515D305F10807891A385C80B993
:1003F00079B10098814288BF01460091761CE9E7F7
:10040000684600F0F3F910B9684600F08CF8012056
:10041000F2BD00F0F9F90020F2BD0C21044B484375
:1004200018440122027270470349087070470000A7
:10043000F077002001000080197B00201FD9020006
:100440006576656E742D636F6E74726F6C2E6300CB
:10045000024800787047014908707047A47F002067
:10046000EFF31180602181F31188704780F31188C8
:10047000704770477FB500F011F818B900F015F813
:1004800000F0F1F904B070BD7FB500F007F818B9BD
:1004900000F00BF800F002FA04B070BD0446084604
:1004A00015461E4602A900F0B4BA089909980091B1
:1004B0000190334602992A462046704780B500F0E5
:1004C0000DF880B202BD80B500F008F8FA21B0FB4B
:1004D000F1F080B202BD000000BF0000E0B500F006
:1004E00081FA6A4600F0C9FA18B147212BA000F042
:1004F0005FF8DDE9000103B000BD000080B500F049
:100500000AFC0121174800F07DFD00F081F920B1BF
:100510005FF0520121A000F04BF8002002BD12490B
:10052000012008707047FEB504460025216801B916
:100530001EE000F00CF808B100F002F801201BE00A
:1005400001950095002321683A46301D92E7064E3A
:10055000064F35700023009301953A46301D93E70E
:100560000000000030053E00D47900201F05000087
:1005700000F04AF90020FEBD01F07BF9307840B967
:100580002146301D00F0F4F9206800F057FA852567
:1005900001E00020307020602846FEBD737973743E
:1005A000656D2D74696D65722E63000042DE7047C3
:1005B00038B504460D4601F065FD02F061FB02F01E
:1005C0007FFB2946204602F0A4FB2B4622466B49BE
:1005D000012002F029FD29462046BDE83440E5E728
:1005E00067482DE9FC41674F0168B9654FF4206801
:1005F000016AF96564490A683A6649687966416A38
:10060000B966816AF966C16A3967016B7967806B7F
:10061000B86797F8380041074CBF3D6CFD6B02F09E
:1006200059FD00223A658542DFF860E1014624BFAA
:10063000AEF12006AE422C46796507F19002544B8C
:10064000DFF850C118D3A8697864ED69BD64BD6D49
:10065000C5F30805062D13D1604511D398420FD27A
:1006600000884DF64265A8420AD17D68B868556099
:10067000906040F2017803E000247C64BC6404468E
:100680004548814238BF0146714569D20E68B6F1CE
:10069000CD3F08BF091DF7D062E0062D08D1050047
:1006A0000CBF0520401E07F17C05C0B245F82010A4
:1006B000744520D25EF8041D6145F9D39942F7D202
:1006C000CD07F5D5002507F17C0656F825608E424A
:1006D000E3D06D1C062DF6D3DFE7F96F002307F199
:1006E0007C0607EB8304D4F8805046F823505B1C4B
:1006F000042BF6D911600146481EC9B20029ECD17D
:10070000B86DC0F30800032810D0042811D00528C4
:1007100012D0062813D00C2817D0122818D11F4841
:1007200001688A0719D540F2025816E040F6012800
:1007300013E040F6022810E040F603280DE0B8F57B
:10074000206F0AD140F6042807E040F6052804E0AF
:1007500018B1322838BF40F607284046BDE8F68178
:100760000F48451AFD640020002107F17C0545F87B
:100770002010401C0628FAD3002099E778A2020036
:1007800004ED00E00000002000E300E0005A00203B
:100790006A810200C80100009C0000201C20054066
:1007A000005A0020EFF31080C00706D4EFF3118049
:1007B00060288041C043C00F7047012070477047D8
:1007C0007047704770477047704770477047704771
:1007D000704770477047704700207047704700208F
:1007E000704770477047704700207047002070477F
:1007F000704701207047012070477047704770476D
:100800007047704770477047002080F31188704729
:1008100038B5FFF725FEDFF8A8540446287800BB5A
:10082000DFF8A02400211160DFF89C241060DFF8BD
:100830009C24118002F066FC012002F0C1FC02F051
:1008400009FD0246DFF88804026040F2E731DFF874
:100850008404002302F01CFDDFF87C1408600120F2
:100860002870204680E0F8B584B000F035F80CB967
:1008700022200EE003A9204600F05EF89DF80C004F
:10088000012808BF032004D000F01FF8002200F068
:1008900002F805B0F0BD29462046E6E12DE9FE4309
:1008A0000400894690461F4608BF22200BD00B9DAE
:1008B0000A9E00F019F8029501960097434600221F
:1008C0004946FFF7E9FFBDE8FE830B980A990290BD
:1008D0000191009733467047044600200D461646A6
:1008E0001F468DF80C007047F8B5054600240DB979
:1008F0002220F2BDFFF7B4FD064600F0A4F9DFF8B0
:10090000C4733868A84208BF0124284600F071F972
:10091000050003D000F05FF82846F2BD38681CB12E
:1009200018B100F081F903E010B9022002F055FC83
:1009300000F051F80020F2BD38B505000C4618BF94
:10094000002C01D1222032BD00202070FFF788FD4D
:10095000DFF870130A6800E092682AB1217819B9AB
:10096000AA42F9D101222270FFF780FD002032BD9A
:1009700070B505000C4618BF002C01D1222070BDB7
:10098000FFF76EFD064600F05EF968692060DFF84B
:100990003403006805E0D0B1216842695118216034
:1009A0008068A842F7D102F0E5FBDFF81C53296804
:1009B000401A2168884206D202F0DCFB2168081A3E
:1009C0002968081800E000202060304606E000F0AA
:1009D00002F8032070BD3046FFF748BDFFF746FD23
:1009E000002070BD70B5FFF73BFD064602F0C2FB6C
:1009F0000546DFF8D8020488012002F003FC18B194
:100A000002F0B8FB0546641CFFF7E5FF21462846C7
:100A100070BD30B5B04A0C46116881420CD3AC4D64
:100A20002968A1FB00014FF47A72002302F030FC28
:100A3000401C2060002030BD212030BD7CB54FF42B
:100A40007A71A1FB0045A2480668304600F04FF9D4
:100A500050B1304600F046F902462046294602B021
:100A6000BDE8704002F02CBD20462946324602B057
:100A7000BDE87040002302F00BBC2DE97E41974D8C
:100A8000974CA94223D828BFA04220D216464FF443
:100A90007A72A2FB00458E48D0F8008002FB015517
:100AA000404600F024F940B1404600F01BF90246F0
:100AB0002046294602F004FD05E02046294642462C
:100AC000002302F0E5FBC6E90001002000E0212040
:100AD000BDE87E812DE9F8430446E007DFF8E481B4
:100AE0000AD57A480188491C018000F0ACF8D8F892
:100AF000000008B100F098F8A00753D5724F02F03B
:100B000039FB3D680646751B35E0294620463E60A8
:100B10004269914209D3037994F804C0634538BF10
:100B200004468068891A0028F2D14846FFF79EFCE7
:100B300060692D1A00206061FFF792FC8146204613
:100B400000F057F84846FFF791FC206948B1FFF7DD
:100B500087FC81462169204600F027F84846FFF7C8
:100B600085FCE26812B121682046904702F002FB42
:100B70004519AD1B0646FFF773FCD8F800408146C7
:100B800044B160698542C0D2451B65613E6000F09A
:100B90004BF802E0022002F020FB4846BDE8F24399
:100BA000FFF764BCBDE8F1830000F8B5454E416134
:100BB0003468D4B100256369994206D22BB1CA1AB0
:100BC00009D122790779BA4205D2C91A416125466D
:100BD000A468002CEFD1002D14BFA8603060220063
:100BE00005D06369591A616101E0306000228260BA
:100BF000F1BD344B1968002291B181421CBF0A46F5
:100C00008968F9D10CE08168002A14BF91601960ED
:100C1000816819B14A69406982184A6100207047A9
:100C20008142F0D00220704710B5264926480A6854
:100C3000046850690419022002F0C2FA2046BDE897
:100C4000104002F09ABA10B502F094FA1D491E4AFB
:100C5000096841B113684C69C31A9C422EBFE31A5C
:100C6000001B00234B61106010BD70B506460C469A
:100C70001546049A05990698317132600021B160D9
:100C80003561F360F0803CB9F268716112B131688E
:100C90003046904795B12C46FFF7E2FB0546FFF73B
:100CA000D2FF21463046FFF780FF06480168B14277
:100CB00008BFFFF7B9FF2846FFF7D8FB002070BD3B
:100CC000C17F00208C6D0020906D00208A7F002065
:100CD000886D002018FCFFFF946D002037894100CB
:100CE000F0A7C64BB0FA80F0C0F11F00704720B1EA
:100CF000411E084201D10120704700207047FEE7E5
:100D0000002807D4012200F01F01554B8A404009FA
:100D100043F8202070472DE9F84187B003A85149D6
:100D2000DFF84481102202F0EDFB6C46002500261E
:100D3000002784E8E00002208DF8060001214B48DE
:100D40004B4C4C4E00F05EF96A460021204602F002
:100D500067FC4FF6FF70E0618DF80E500127464D9D
:100D600003A9204602F011FC404600F07BF99DF8F3
:100D70000E1007FA01F2491C8DF80E10B0FBF2F0CC
:100D8000C9B20B29286001DAB042E9D23B4800F031
:100D900069F93B492D68B1FBF0F23A480021E2FBCA
:100DA0000501394A394D002302F072FA2860002506
:100DB00037490D70A06920F01000A0610A20FFF7EC
:100DC0009FFF34494FF48060086008B0FFE70020BF
:100DD000BDE8F0812DE9F04100F01AF800F011F8BB
:100DE00004E0404600F02AF8A4197D4100218D421C
:100DF0004FF6E950F5D88442F3D2A0B200F01EF8C5
:100E0000E5E74FF0FF374FF6E85804460D467047C8
:100E1000194B214E1C6802461A480021E2FB0401CE
:100E2000194A002302F034BA1C480168C90604D5E7
:100E3000102181600120164908707047010081B0BF
:100E40000BD017490A6892B20B68ADF80030BDF8B4
:100E500000309B1A9BB28342F6D301B0704700006A
:100E600080E200E044A202004041050000020400CC
:100E70000080014081841E00506E0020700002003E
:100E800000B0710B20A1070040420F00546E0020FB
:100E9000C47F002000E100E01802FFFF0C80014049
:100EA00024800140890001EB401101F184410A6076
:100EB0007047890001EB401101F1844108687047D7
:100EC0000122DFF8B81510B5884232BF0022DFF8E2
:100ED000B015884201D2144600E002241021DFF848
:100EE000A405FFF7DFFFDFF8F406016821F0807149
:100EF00041EA0461016010BDDFF88C15DFF88C3524
:100F00000A6802F04072984238BF002204D3DFF82A
:100F1000D036984238BF0122086820F0407040EA7D
:100F200002600860704738B500F013F841F6713080
:100F3000286002F0BCFB002105E038B500F009F89C
:100F400041F671322A60FFF7D7FF0CB1002028600C
:100F500031BDDFF824572C6804B101247047C01C50
:100F60000F2801D2000770474FF070407047000013
:100F700038B50446002500F053F9DFF86826DFF89D
:100F80001816944208D0DFF86026944206D0DFF8A5
:100F90000C26944204D006E0086802E0486800E0AD
:100FA000886800F00700401E03281BD8DFE800F027
:100FB00002050C0802F0C1FB04E002F0C4FB01E0F2
:100FC00002F0BEFB05460DE002F073FBDFF80C16E5
:100FD0000968090E01F001010122491C02FA01F120
:100FE000B0FBF1F5284632BDDFF8D4164A68D307C6
:100FF00002D40B680342FCD1704780B500F0D0F8F2
:10100000401C02BD70B50C460246110A01F00F01EA
:101010000020491E0929DFF8D45613D8DFE801F073
:1010200005131212071518121B1FDFF85854C2F3CC
:10103000043608B1FFF7D8FF224631462846BDE8FE
:1010400070402FE770BD1035F1E730350120EEE735
:1010500038351020EBE740354FF48030E7E7DFF814
:101060009056E4E7F8B50646DFF85806DFF8742531
:101070000768DFF87415DFF82405DFF860450125FF
:1010800016F4781365D0B3F5003F2BD0B3F5802F5D
:1010900024D0B3F5202F5CD0B3F5402F28D0B3F582
:1010A000602F4ED0B3F5801F77D0B3F5A01F2AD0A4
:1010B000B3F5B01F2FD0B3F5D01F35D0B3F5F01F67
:1010C0001FD0B3F5001F2DD0B3F5101F36D0B3F5E8
:1010D000481F41D0B3F5781F55D05DE002F0E9FA22
:1010E000E16802E002F0E5FAA168C1F3082104E03A
:1010F00002F0DFFA6169C1F30421491CB0FBF1F78A
:101100004BE010461AE0FFF733FF0746206B00F074
:101110000F00C74041E01046FFF72AFF216A01F0A7
:101120000F0107E0084609E00846FFF721FFA16A22
:1011300001F003018D40B0FBF5F72EE0FFF718FF3B
:101140001FE0DFF8B00500F06BF8072825D009286C
:1011500022D102F0AEFA14E0DFF89C0500F060F84E
:1011600004280CD0072818D0082815D102F0A1FABD
:1011700007462068C0F30420401C47430DE002F0FE
:10118000B4FA074609E002F094FA04463046FFF745
:1011900034FFB4FBF0F700E000273846F2BD000052
:1011A00001460B0903F00F0301205B1E092BDFF83A
:1011B0002C2432D8DFE803F005070B113131131767
:1011C0001F29106800E05069C0F3042070471168BF
:1011D000090E01F00101491C14E0D06800E090689C
:1011E000C0F308207047DFF81435994215D1116A11
:1011F00001F00F0106E0DFF8083599420DD1916A40
:1012000001F003018840401E7047DFF8F804814276
:1012100003D1106B00F00F007047002070470000F2
:10122000014601F00F010120491E0729DFF8D824EB
:1012300049D8DFE801F0040F1348202E4836506AE1
:1012400000F0070002283AD002D3042804D01CD3AF
:101250000520704711690FE002207047516901F0C5
:101260000701491E03292FD8DFE801F00F020311FF
:10127000F2E706207047916901F00701012904D0C7
:101280000229E9D0042902D07047032070470A20C0
:101290007047116811F001010FD0012914D1092004
:1012A0007047DFF86824116801F03001102904D07C
:1012B000202904D0302904D070470720704704202B
:1012C0007047082070470020704700007CB500F090
:1012D0000F0003250326401E0728DFF82C440FD8F3
:1012E000DFE800F0042D31742F5874620229DFF812
:1012F0008C0106D0032919D0042919D005291CD046
:1013000073BD0425002601220121304600F0C0F8FB
:10131000FFF709FE656002F0BDF9044602F0C9F965
:10132000FFF7CEFD2046BDE87C405DE00126EAE700
:1013300002250226FFF7C4FDE5E70125FAE7103490
:1013400002E0183400E01434012928D0022906D024
:1013500003290BD006290FD00A2919D073BD012209
:101360000121002000F094F802201BE0012201215D
:10137000012000F08DF814E002F09BF9FFF7A0FDCA
:1013800001220021DFF86403FFF78CFD032009E050
:10139000042007E0072902D0092902D073BD0020EC
:1013A00000E00120206073BD012906D0042915D07A
:1013B00007290CD0082915D073BD0020DFF84C1385
:1013C0000A6822F0300242EA00120A6073BD01226C
:1013D0000121042000F05CF80120EFE700F006F89E
:1013E0000220EBE70320E9E70021A6E50122012125
:1013F00002204DE070B5044600F03DF801220021C6
:10140000022000F045F8217CDFF808530020022973
:10141000296808BF0120490840EA410028600821E6
:1014200022782846FFF73EFD6968E07AC90840EA5D
:10143000C1016960A088617A41EAC021A960EE68B3
:10144000207AFFF78CFDE288A17A06F07F6646EAF3
:10145000C2260E43217A46EAC1160643EE60A17BFE
:10146000607B090141EA0031E07B0143207B41EAD6
:101470000041296170BD1120D2E600000148E80159
:101480000190D00300400E4004000E4041787D01E1
:10149000042800D970472DE9F84FDFE800F04E49E5
:1014A0003F0344000127022301250026002993461B
:1014B000DFF83482974C5FD08246BAF1020F02BF48
:1014C0002068C0F3011000284FF000090AD12068FD
:1014D000C1074FF0010905D5216821F0300141F025
:1014E00010012160E763314600F05BF80028FAD074
:1014F000BBF1000F3ED000F053F80028FBD0BAF14A
:10150000020F37D1B9F1000F34D02068C1071BD5C5
:1015100001222021022000F0D7F819E00427082337
:1015200003250226C2E71027202305250426BDE750
:101530004027802307250626B8E74FF480774FF42D
:10154000007309250826B1E70021022000F096F873
:10155000022000F029F80646012200210220FFF7B0
:1015600097FF3146022000F041F8E76300F018F8D9
:101570000028FBD0BDE8F18FE363D8F80000F0400D
:10158000C007FAD4BBF1000FF4D0D8F80000E8404F
:10159000C007FAD4EEE7000080400E4005002400AA
:1015A00029464046FFF785BC401E0328584912D8FB
:1015B000DFE800F0020C06080869C0F30800704775
:1015C000086800E0886800F07F00704752480068B3
:1015D000C0F30A00704700207047000000410E4031
:1015E000015A620202001E0003002000F8B5401EEE
:1015F0000D46032805F07F06454C314F3BD8DFE808
:1016000000F00228101CC5F308051A213846FFF720
:1016100050FC0028F9D12069400A45EA402525619F
:10162000F1BD18213846FFF744FC0028F9D12068A5
:10163000C00946EAC0162660F1BD19213846FFF7F9
:1016400038FC0028F9D1A068C00946EAC016A66097
:10165000F1BD25490868606920F0300040F01000B5
:101660006061C5F3C310FFF77AFC226A2B490A4078
:10167000154305432562F1BD40000E40254A106820
:10168000C0F30110002818BF002911D0202902D072
:1016900030290DD00FE04FF40000D16E014081429F
:1016A000FBD1400209D5D06F800A00F001007047DD
:1016B0004FF44000F1E71A48EFE7012070470000BF
:1016C00040410E40A85B002010B502280AD10B0053
:1016D00004D0144B4FF480645C64196012B1BDE80F
:1016E0001040CBE7012010BD90400E40B0400E40AE
:1016F00050410E4006000E00B80032008006160071
:1017000090071A00A009140070400E405C410E4082
:1017100010400E4024400E409C400E4000F8FF0F49
:10172000FF03E10764400E4054480168090C0904B6
:10173000816051480160704701000FD4504A400950
:1017400052F8202001F01F01CA40D20706D54D4AA9
:1017500052F82000C84000F0010070470020704798
:10176000000000002DE9F84F054607288A4608BF0B
:10177000032502D0082808BF02252946012002F0CF
:1017800064F801F087FA30B1012D04D1A52001F0F1
:101790007AFA012605E001F07DFA002608B101F091
:1017A0007EFAEFF310800090012080F31088EFF3B1
:1017B000118B4FF0000888F31188012D0CBF814672
:1017C000C146484602F03BFA2A4C681E0428C4F879
:1017D000008016D8DFE800F0030A0A0E12002A483B
:1017E000016821F00401016030BF0EE0012002F029
:1017F000DAFC0AE0012002F0EBFC06E002F01AFD40
:1018000003E088212148FEF7D3FE1C48C168076821
:101810000F40BFB227600920FFF78EFF18B91120D3
:10182000FFF78AFF10B147F4803727601D20FFF7CC
:1018300083FF18B1206840F4003020601EB1012100
:10184000134802F0EBFF484602F00FFABAF1000F1E
:1018500005D08BF31188009880F3108801E088F39D
:1018600010882946BDE8F44F002001F0EEBF0021AA
:1018700078E7FCE7606E0020646E00201CA4004046
:1018800000E200E000E100E010ED00E054AF0200F3
:101890000020054038B5044603F02DF80546DFF872
:1018A0004C0A83780178994211D000F043F8641E05
:1018B00007D0641E08D0A41E06D0A41E032C03D992
:1018C00005E00022194600E0002203F071F82846E6
:1018D00032BD03F0F1B810B5DFF8543A4C000146C0
:1018E000986A224603F06DF8A04201D0002010BD96
:1018F000012010BDDFF8382A0146107B002800D1F6
:10190000704780B5906A03F0DCF828B1BDE8044068
:1019100040F29B1100F0B1BB01BD80B500F00AF8A8
:1019200003F048F800F00300032801D1012002BDB4
:10193000002002BDDFF8F809806A704780B5B0F575
:10194000004F08D14FF6FF70DFF81C1A098800F02D
:101950005AFEBDF80000DFF894194883002002BD4C
:101960002DE9F04F4FEA501C0C4600F01F000026F6
:10197000DFF8F8892FE00EF1010EEF7E5FFA8EF0AE
:10198000B84226D2E8695FFA8EF9142717FB09F9E5
:101990004844077A07F007076745ECD1477AB94210
:1019A000E9DB90F801B090F8009007EB0B0AAAEB86
:1019B000090A8A45DFDB14B1C91B494421700AB109
:1019C000017A117003B11860284600E00020BDE8DC
:1019D000F08F0846761C98F80650F1B2A942F5D26D
:1019E000D8F808105FFA86FE51F82E504FF0000E1E
:1019F0000146C2E7400918BF40F01800704738B5EB
:101A0000DFF82C49A06A03F0F7F80546E80744BF61
:101A1000A06A03F0F6F8E8031ED5E16ADFF8705A11
:101A2000086A18B940F2662100F01DFDE06A016AFB
:101A3000486818B94FF41A7100F015FDE26A136A8C
:101A4000A06A5A680021904730B12846BDE834406A
:101A500040F26921FEF7ACBD31BD3EB568460021BC
:101A60000022002380E80E00DFF88048A07A257865
:101A70008DF80050002818BF022810D1DFF8B058A8
:101A800000F00EF858B1A86A0122002102F094FF7C
:101A900000F006F818B140F29E2100F023FC37BD9B
:101AA0002179A86A6A4602F0DEBF00002DE9F04302
:101AB000FF2889B006460AD1DFF8B00881680A68B5
:101AC000D069467A017A06F01F0646EA4116F5B259
:101AD00005F01F001B2847D20021019101AB6A4687
:101AE000F0B2FFF73DFF5FEA00081CBF0198002835
:101AF0003AD0DFF8F847DFF838782179F0B2884239
:101B000031D00B3D102D39BFDFF8EC090568DFF847
:101B1000EC190D68002D1CBF2878032824D0786CA0
:101B2000854214D002A82946062201F0DBFCB86ADF
:101B30007D6402A903F008F8B0B9B86A04A903F0FB
:101B400017F8B4F91810B86A02F0C3FF60B9386B1F
:101B50000199C7F82C80884208D19DF8000078735D
:101B60002671FFF77AFF80E08A2086E0A57ADFF809
:101B7000209900F087FA386B38B1B86A03F09FF803
:101B800018B140F2D32100F0A9FE01980199386301
:101B9000C868786318B94FF4367100F09FFED8F822
:101BA0002000B96C814219D018B940F2DF2100F051
:101BB00095FED8F82010086818B940F2E12100F02D
:101BC0008DFED8F82010B86A0A68904718B140F224
:101BD000E22100F083FED8F82000B8645FF01C0218
:101BE0009DF8000026A17873267102A801F08AFCF6
:101BF000786B418A0901C039ADF80E10417C0901AA
:101C00001439ADF8161002A9407C0001ADF81A0095
:101C1000E079401E8041C00F8DF82100787C8DF85E
:101C20002200B86A03F018F818B140F20D3100F044
:101C300055FEB86A0122012103F0BEF818B140F246
:101C4000323100F04BFE00F042FCA08B00F06BFC48
:101C5000E08B00F086FC207A00F01CFC00F0DAFC3F
:101C600000F0A1FC284600F077FA97F90E10B86A48
:101C7000C905091403F0BCFA002000F02CBE0000D6
:101C800000000000010000000101010164000000EB
:101C900064000000000000000B000000DFF8CC072B
:101CA00000797047DFF8C407B0F91800002854BF66
:101CB00005216FF0040108180A2190FBF1F040B2F1
:101CC00070470A2110FB01F0FFE7F8B500F5D77166
:101CD00040F27722914201D38B20F2BDDFF85056BB
:101CE000DFF888472A6B0A26002A1EBFA17E01F072
:101CF000C001802911D0E97B79B992F902100F4611
:101D000017FB06F7B842A1BF92F903100A4612FB6F
:101D100006F28242B8BF11FB06F0297B61B1014691
:101D2000A86A02F0D6FE18B140F2853100F0DAFA66
:101D3000A86A02F0F2FE01E010FB06F0208300200A
:101D4000F2BD38B504460B38102839BFDFF8A807B4
:101D50000068DFF8A817086888B100230022002176
:101D60002046FFF7FDFD50B104F01F051B2D06D2E4
:101D70002046FFF73FFE10B928460B2800DAFF2067
:101D800032BDDFF814194008085C70477047C0B2D4
:101D9000704711F1630F01DA0020704711F1240F31
:101DA00001DBFF20704764310902481101EB9061AB
:101DB0008904080E704770B5DFF87445DFF84C5998
:101DC0000020E064687830B103F01AFA0246012A74
:101DD00018BF032A01D1002070BD606BDFF8843882
:101DE000DFF8086500281FBF216B09690029022A56
:101DF00017D1E364706900F5FA707061607D18B105
:101E000000200021642203E0E87829794FF4A072D1
:101E10002070A28061708021A878A070E1800020ED
:101E200031E0DFF878587269A94214D1DFF800195F
:101E3000E16402F57A727261617D91B90179217074
:101E400001258278037990F903109540EB18CB189F
:101E50005B1E63700DE0E36402F5FA727261617DEE
:101E600019B100222280642105E041782170827836
:101E7000627001780901A1804179A1700289120183
:101E8000E280C0880001A06000F0C4FBE070A07890
:101E900041B2002948BF4042C0B270BD70B504468F
:101EA000DFF88C64257896F9160008B18C2070BD97
:101EB0003065FFF780FF30766901DFF83024DFF806
:101EC0004C385078107301F580715161987910B1D8
:101ED000AD1EEDB203E0306D40F002003065F17BE5
:101EE00081B9187870B1607881060BD5306D40F0FB
:101EF000010030656FF00101B175506900F508709F
:101F0000506102E04FF0FF30B07503F0AAF940B124
:101F100003F0A5F90128316D0CBF082010200843FB
:101F20003065032000F018F96A1CB06A4FF4807322
:101F300092B2214603F09DF96D1CA84203DA40F2EB
:101F4000055100F0CFF9002070BD00002DE9FC41E3
:101F5000DFF8DC6396F916100025091D04296FF0DF
:101F6000030418D8DFE801F00A0A1B1B0300FFF77F
:101F700095FF050013D000F028FE7BE096F91600CF
:101F8000A0420CBF0121002100F020FEB57500F039
:101F900019FE8E206FE000F018FE8C206BE002F03E
:101FA000A8FCE0B1F06CDFF8BC16884217D1307E97
:101FB000A8B1DFF880170868002810D5DFF8780787
:101FC000C168C1600122006800F00F008240521E0B
:101FD000114204D100F02FFB642003F098F9FEF7C2
:101FE0003FFA804696F9160010F1010F1CBF96F9D2
:101FF000160010F1020F2DD196F91600DFF8EC72E1
:102000004042B075FEF75AFA38620022B06A802169
:1020100003F0A6F9F46CB06A3979326D002C07F13F
:102020000C0306D102F0FCFC010005D100212520A3
:102030000DE000933346A047C8B10020B0754FF0C3
:10204000FF3139628C2500F0BDFD00212620FFF70D
:1020500021FC0CE096F91600A0420CBF01210021E2
:1020600000F0B4FD0020B0758E2500F0ABFD4046B9
:10207000FEF7FCF92846BDE8F681DFF81404FEF708
:1020800097BA0000F8B5FEF7EBF9984D0446A87A28
:10209000012803D12046FEF7E9F9F1BDA44EDFF88F
:1020A000F073B06A0122012102F086FCB06A80223E
:1020B000802103F055F900BF26A00188B06AADF871
:1020C0000010694603F07FF820B140F2EB5138462A
:1020D000FEF76EFA02208DF800006946B06A03F040
:1020E00051F820B140F2ED513846FEF761FAB06A7E
:1020F00002F08CFC00212C20FFF7CCFB00210A20F1
:10210000FFF7C8FB0120A87296F91610091D0729D0
:1021100014D8DFE801F01818070B040F0F0F03F0B5
:1021200004FB10E06FF00300B0750CE06FF00201EB
:10213000B17508E0892000F0B3FA04E040F21461C0
:102140003846FEF735FA2046FEF790F903F06FFDAA
:10215000F1BD000004010000F8B5644DA97A044601
:10216000A1425CD02EA3724F1E88ADF800600329F7
:10217000DFF81C634FD8DFE801F047023B2B03F088
:1021800058FDB86A694603F01EF818B140F2316193
:1021900000F04CF802208DF800006946B86A02F0A1
:1021A000F1FF18B140F2336100F040F8687900287F
:1021B00014BF00220222B86A022103F0D1F818B13C
:1021C0004FF4C76100F032F80320032CA87226D028
:1021D00000F027F80220A87200222979B86A02F0DC
:1021E00042FC18B140F2456100F020F8022C16D0F4
:1021F000200018BF032C12D10020A8720022B86A58
:10220000802103F0ADF8F1BD022C08D100F009F8EF
:102210000220A872F1BD40F25B6100F007F8F1BD49
:102220000402B86A8022802103F09AB83046FEF793
:10223000BFB9002090E78D48807A7047032805D801
:10224000DFE800F0030203031CE785E740F2796151
:1022500013E710B5364CA06A02F0B2FB94F91600F1
:102260000028824844BF0021A175417A012902D18A
:10227000BDE8104006E710BD7C48407A704780B545
:10228000032801DB012002BD78494872897A88421F
:1022900018BFFFF7D3FF002002BD2DE97C4F244E6D
:1022A00003EA010BD6E9088929EA010528EA0004B6
:1022B00002EA000A45EA0B0544EA0A044D4508BF54
:1022C00044450DD0CDE900230246B06A0B4602F02A
:1022D00081FF18B140F2A16100F004F8C6E9084599
:1022E000BDE8738F6A48FEF763B90000B85C002050
:1022F0000F49087B002800D1704710B5087D0022E7
:10230000002318B1DFF8B82803230AE0C87C00B125
:10231000402256480178807881421CBF4CF64854D0
:102320002243BDE81040DFF898080321B5E700001C
:10233000A85F002038B5DFF8A0580446287B2C752C
:1023400078B1FFF7D5FF002C14BF00220822A86A3D
:10235000082103F005F820B1BDE8344040F23F7198
:102360008BE631BD00000000FED80200F0C502007F
:10237000F8B50446022C0FF68C0503DB40F24B71D6
:1023800000F071F8DFF85068307B002867D1374FD4
:10239000B87A012803D040F2517100F064F80021AE
:1023A00007F1240002F0EBFAB06218B940F2547160
:1023B00000F059F8B06A052102F089FD18B140F229
:1023C0005C7100F050F84FF0FF30DFF81028D02398
:1023D0000146FFF762FFB06A4FF0011102F01DFCE9
:1023E00018B140F2767100F03EF8B06A09224FF061
:1023F000FF3102F0B5FF18B140F27C7100F033F804
:10240000B06ADFF8DC1702F052FF012030730223BC
:10241000DFF8D00701887F22684603F0D5FCBDF8BD
:102420000000C10548BF0020B07302F062FAFFF758
:1024300081FF788BFFF782FA03F046FD3879FFF7CA
:1024400035FB18B14FF4F26100F00DF8FFF750FFC3
:10245000B7F91800FFF739FCB87900F098F8204672
:10246000FFF7ECFEF1BD2846FEF7A2B8B85C0020ED
:1024700080B5FFF75FFA012102F001FB10F5007F44
:1024800002D16FF07F0002BD8005001602BD000082
:10249000042C000038B50446FDF7E2FF0546DFF8DE
:1024A0003407DFF834270472D07D38B9107B28B1A7
:1024B000611E8941906AC90F03F05AFD2846BDE8A4
:1024C0003240FDF7D3BFDFF80C07007A7047DFF822
:1024D0000837187B002800D1704780B5986ADFF86C
:1024E0000817002202F049FC20B1BDE8044040F288
:1024F000F371C2E501BD0000BC5B0020C05B0020A1
:10250000DFF8D4260146107B5174002800D17047B3
:1025100080B5906A02F040FC20B1BDE8044040F272
:10252000FE71AAE501BD0146DFF8A806DFF8A8366E
:102530008183187B002800D1704780B5986A0022FB
:1025400002F00CFC20B1BDE8044040F60F0194E518
:1025500001BDDFF88006808B7047DFF87806C08BFE
:1025600070470146DFF86C06DFF86C36C183187BD4
:10257000002800D1704780B5986A002202F0DFFB86
:1025800020B1BDE8044040F6250176E501BD10B557
:10259000DFF844260446906A214603F0F9FCDFF890
:1025A00034168C7110BD7CB57F2804460CD14FF6D3
:1025B000FF70DFF83856298800F025F8BDF80000D4
:1025C0007E24C10558BF0446FDF74AFFDFF80866C0
:1025D0000546F07D68B9204641B27E2903D1306BB3
:1025E00038B190F9040041B27E29BCBF40B2FFF778
:1025F00081F9707B00B10120DFF8F4150C542846F6
:10260000FDF734FF73BDADF8000002237F2268465A
:1026100003F0DABBDFF8C015487B00B10120DFF81A
:10262000D02510567E2805D1086B08B97F20704749
:1026300090F90400704700212320FFF72BB9DFF841
:10264000980590F9161003290AD10022DFF8843585
:1026500082754FF0FF311962816B402002F0BBBEE2
:1026600070470000334A000038B50446DFF868556B
:10267000FDF732FFE863FFF750F901462046FFF708
:1026800009F9062C02D002F0DBFD01E00020A8745D
:10269000BDE8314003F049B8585E0020182C000016
:1026A00038B50446DFF82C15DFF82C554FF0FF3015
:1026B0000862FDF711FFE86395F91600012823DB96
:1026C000DFF83015487808B1E86B286495F91600F2
:1026D00002280CBF012100210020A8758D2C16BFF7
:1026E000872C26202720FFF7D5F8E87B28B1A86A99
:1026F00002F066F90120287431BD2046BDE838405B
:102700000022002102F067BE31BD0000B05C002055
:1027100080B5FFF702F901460120FFF7BBF8DFF8AB
:10272000B814C87C18B1BDE8014000F076BA01BD0C
:10273000454A0000044008404C5008402DE9F04351
:10274000DFF894540FF2BC49A86A89B005AA0321A6
:1027500002F0A9FD5FEA000803D14FF4396100F0EF
:10276000BDF89DF81400DFF86C44BDF8167007281A
:102770001CBF6079002818D1062F16DB07F108006E
:102780008B2812D2002000903B46DFF86C64A86AC8
:102790003246414602F093FDB84203D040F6AA31DA
:1027A00000F09CF83078010606D5FFF7B6F8014630
:1027B0000420FFF76FF88EE0A86A6A46414602F0EF
:1027C0007AFD18B14FF43C6100F088F8707800F0A1
:1027D0000700022831D1FFF7A0F801460920FFF7D2
:1027E00059F894F8078095F91600032821D19DF82F
:1027F0000D00F0B10021A9754FF0FF302062B178D3
:1028000001F0300120290FDA062F0DD17078000970
:1028100000F0010421462920FFF73CF8A96B22466D
:102820008F2002F0D8FD56E0A96B0022402002F074
:10283000D2FDB8F1000F4ED105E09DF80D0010B1AA
:102840000020FFF7FCFE7178E07998B18A0611D577
:10285000207A78B1A86A03F094FB20B1FFF75DF805
:102860000146062003E0FFF758F801460520FFF770
:1028700011F80BE001F00701022905D0FFF74DF830
:1028800001460920FFF706F80020A8743178491C9A
:10289000B94203D040F61B4100F020F8F01921792D
:1028A000017000224270FF229DF80E1081700837DF
:1028B0009DF80F10C17002710099090C41710099C7
:1028C000090A81710099C171F9B2AA7C304602F0FF
:1028D000E0FE0020A87409B0BDE8F0834846FDF78B
:1028E00067BE0FF22830FDF763BE10B5DFF8E402D3
:1028F000046A002C15D4FDF7E1FD041B40F2E93019
:10290000A4B284420DD3DFF8D01291F91600032847
:1029100003D1BDE81040002091E6BDE810408920B9
:10292000BEE610BD10B558B902F08BFCFDF798FD5E
:10293000044600210020FEF7ADFFFFF7D6FF02E0BE
:10294000BDE81040D1E72046BDE81040FDF78EBD40
:102950002DE9FE4F144683466106994648BF002084
:1029600002D4200602D50120FFF7D2FEE002994DE5
:10297000994E2AD50021B174287A30B3584603F015
:1029800000FB10BB6946584602F02DFAE8B99DF8E5
:10299000080002280DD1BDF8000003F0FDFAFF2861
:1029A0000DD096490A6832F8100010F4E66F06D18F
:1029B0000BE0032809D1684603F062FB28B1B06A36
:1029C00002F00FFA08B90120B074E00305D5FEF754
:1029D000A4FF01460320FEF75DFF96F916000FF2F3
:1029E0002428012806DB60024FF0FF3A38D596F91B
:1029F0001610012978DB96F91600032874DAB06AFC
:102A000006F13802002102F0BBF8FDF765FDF06326
:102A10007849487808B1F06B306496F916000128BF
:102A200006D0022816D10321B1752820002159E0D3
:102A30000020B075C5F820A000212B20FEF72AFF4A
:102A4000F07B20B100F0BEF8012030744CE0B16B97
:102A5000002222E040F66C114046FDF7A9FD43E05C
:102A600014F0044F1CD096F9160002280CBF012761
:102A700000270020B075042002F0E4FBC5F820A078
:102A8000394600F0A3F8F07B0028DBD1F07D002868
:102A900014BF8E208D200022002102F09CFC23E038
:102AA000E00148BF892002D4E00003D58820FFF769
:102AB000F7FD19E009F002010023994218BFFFF762
:102AC000BAFD09F001010023994207D04C48016882
:102AD000890B01F001012420FEF7DCFE600003D524
:102AE00000212520FEF7D6FE200744BF5846FFF7F9
:102AF00025FEE00505D5FEF710FF01460420FEF790
:102B0000C9FE14F40C4F05D0FEF707FF0146022062
:102B1000FEF7C0FE200244BF0820FFF7A5FD14F019
:102B2000085F1CBF0720FFF79FFD200144BF062060
:102B3000FFF79AFDA00744BF5846FFF780FD09F054
:102B400010010023994210D000210A20FEF7A2FEB6
:102B50005846FFF774FDD6E9080101F0200300276D
:102B6000BB421CBF002003F012FD09F0200100232E
:102B700099421CBF012003F00AFD09F04001002327
:102B8000994213D0584601F011FF78B1022802D0C3
:102B9000032802D005E0892000E08720FFF780FDB0
:102BA00004E040F6DD114046FDF702FD09F080012A
:102BB0000023994218BF03F0EBFCBDE8F78F00003B
:102BC000408D0140B06A01F0FBBE00212620FEF7D7
:102BD00061BE0000B85C0020A85F00200A00D0BFE2
:102BE000931D000000D90200A478002002D9020041
:102BF000F25E0020B05C00201C790020005C002008
:102C0000044008407068792E630000006C696272AD
:102C100061696C2E610000000000704703F0BCBCCD
:102C20003EB501212048FEF7EDF9012201210120E6
:102C3000FEF72EFC0421072003F0B0FC1B4991E8AD
:102C40001C006846032180E81C000D208DF8080058
:102C50008DF809100125164C8DF800508DF807509D
:102C60006946204601F0FFFD124904200860022158
:102C7000616211490860A16A41F00201A16237BD99
:102C80000B4801F0E4BDA52803D10021084801F05C
:102C9000C5BD70470648006800F00100704707494D
:102CA00008680028FCD1704730053E00C0AD020026
:102CB0000020054080E200E000E100E0082005403F
:102CC000602080F31188704770B503F098FDA54C23
:102CD000204604F02FF9D8B9204604F0F4F8FF2874
:102CE000044615D0A0480168085D851EE9B220465B
:102CF00004F082F80646E9B2204603F095FF21462B
:102D0000304600F0E1F82046BDE8704003F02FBEE9
:102D100070BD03460A4692A10420FFE70CB480B5BB
:102D200002AA00F029F801BC5DF80CFB80B586B062
:102D300002F0A4FF8022049200218C4A00926723B3
:102D40000591039302910191024600238BA101207A
:102D5000FFF7E4FF86488179028843790391029264
:102D600001930179C37882780091422086A1FFF710
:102D7000D5FF07B000BD00002DE9F04F85B0054636
:102D80000F46904604F016F90024F0B903F0AEFCAB
:102D9000D8B1012003F081FDFF28824615D0002123
:102DA00003F076FD294601A803F0A6FC054687BB83
:102DB00000F083F830B9504603F018FD10B104203C
:102DC00004F0F4F8504603F0D2FD05B0BDE8F08FF2
:102DD0008DF8041001251BE0634858F8046B006867
:102DE00010F80A90F2B2FF2A12D0F1B210F801B036
:102DF0000BEB0901C9B2504603F016FF0028E1D1E0
:102E0000CDF800B00023F2B24946504604F014F861
:102E10007F1C38780028CBD0A0F130010A2904D2D9
:102E20000A2101FB0404303CF2E700F046F80028D8
:102E3000C8D139780025422901A80ED044291AD0DA
:102E4000462925D057290DD06229C5D066292AD018
:102E50006C2925D0702926D0BAE758F8040B8DF8D4
:102E60000400B7E758F8041B8DF804100225090484
:102E7000090E4170CCE758F8041B8DF804100B0ABA
:102E80000A0C090E437082708DF807100425BFE705
:102E900058F8041B504603F07BFE0028B8D091E799
:102EA00058F8044BB4E758F8041BE2B2504603F05C
:102EB0006DFE002808BF0024F0E72A4601A950460D
:102EC00003F064BE000000002DE9F043122885B035
:102ED00080460D4609D03A281ED04FF6FE71884232
:102EE00004BF2846FDF773FC33E01F48214F0168FB
:102EF0004E5D2846FF282CD0212EB4BF3446202416
:102F000003F0C0FC01462246002000F0BDFE3868F8
:102F1000455D203EF6B2ECE704F0B3F88146FFF7DA
:102F20001CFB0646FEF7BEFE0746FEF7B7FE04464C
:102F3000FFF70FFB10490B8815A1029302460B48BF
:102F40000390CDF810900196009723463B20FFF7A1
:102F5000E5FE2946404605B0BDE8F04304F02CB834
:102F600057460000375F0020EC5B0020A47800206B
:102F700014C50200F45B0020DE5E0020424238707F
:102F800042424242574242004242424257420000BD
:102F90005742425757387042000000002DE9F04177
:102FA0000125012818BF20288AB004460F46904604
:102FB0001E4619D168462349282200F0A3FA012CA5
:102FC00018BF202C08D0022C18BF212C04D0032CB1
:102FD0001CBF222C232C14D1012E0197ADF80C809C
:102FE00004D14FF4805005E001200BE0022E03D104
:102FF0004FF44050ADF80A006946204600F068FEE4
:103000000546E8B20AB0BDE8F08180B500F007FFE0
:10301000C0B202BD80B500F06FFFC0B202BD80B586
:1030200000F0F6FFC0B202BD0CB480B50A460146FE
:1030300002AB054804F0FDF802BC00205DF80CFB73
:1030400000000000189A0200A93F00007047FEE748
:10305000890001EB401101F184410A6070470000D2
:1030600010B50446FFF72CFE1B484AF6E8510160F4
:10307000C162016B01F00F01022913D1174A01212E
:103080001160806B00F00300012818BF022809D1ED
:1030900000221C211248FFF7DBFF0022002111480B
:1030A000FFF7D6FF200A00280F4808BF24024FF27E
:1030B0000F0104804180BFF35F8FBFF34F8F0B4937
:1030C0000B480A6802F4E06202430A60BFF34F8FC4
:1030D00000BFFDE70748704708300E4040400840F9
:1030E00060300E4074300E40000000200CED00E017
:1030F0000400FA05A0500020401CB0FA80F0C0F196
:103100001F007047F0B55949594D91E81C0085B032
:1031100002A8D5E9006780E81C00CDE9006701211D
:103120005448FDF76FFF00228DF808200020FFF7BC
:10313000E3FF8DF80C0002A804F0B1F900208DF82F
:1031400000006946012004F08FF94B48C169C90AA3
:10315000C902C16140F2FF72826100210160012059
:1031600004F09AF945494FF000500860444908605E
:1031700005B0F0BD40480068704710B53E4C21686E
:10318000E26C23695B0704D4531A022B01D88A42EC
:103190000CD1421A022A38BF881C4FF0FF31B0FB15
:1031A000F1F10818E064022000F00AF835490878C7
:1031B00028B1A26C42F00202A2640020087010BD87
:1031C0000021C20748BF012180072F48026848BF7D
:1031D00041F004011143016070470021C20748BF5C
:1031E00001218007284A08D5264B0120187041F09C
:1031F0000401D36A9B089B00D362106820EA010196
:10320000116070470146214A12680020012905D04B
:10321000022905D1900800F00100704702F001007A
:10322000704738B5FDF71CF90546184801680024B9
:10323000CA0748BF01244A0701F0070148BF44F00C
:10324000020481602046FDF745FC2846BDE8324077
:10325000FDF70CB910B50748FDF704FF0446002040
:10326000FFF74AFF24FA00F010BD000014A202008C
:1032700020A20200A00914000820044080E200E01F
:1032800000E100E0085F00202420044018200440F2
:10329000B3BBD9B1B2F5803F7DD2022A1ED98C468C
:1032A000B1FBF2F102FB11C31B0443EA1043B3FB71
:1032B000F2FC02FB1C3380B240EA0343B3FBF2F0A2
:1032C00002FB103240EA0C4000237047022A05D965
:1032D0008446B0FBF2F002FB10C270474AB105D140
:1032E00000F0010249085FEA300070470022002325
:1032F000704704F003B90B00020000210020704762
:10330000904271EB030CF6D3B3F5803F2FD2F0B5AA
:10331000B3FA83F7B1FA81F4A7F10F0E3D1B5340C6
:10332000CEF1200602FA0EF2F3415340B5F10F0739
:1033300046D80F3C2C444140C4F12006A040F14146
:103340004140B1FBF3F603FB1611A2FB0645001B3F
:10335000A94102D2761E8018594180EA010221FA61
:103360000EF362FA0EF200215A403046F0BD30B43E
:10337000B1FBF3FC03FB1C11A2FB0C45001BA94194
:1033800003D2ACF1010C8018594130BC02460B4607
:10339000604600217047B2F1807F65D3F0B5B2FA84
:1033A00082F7B1FA81F4C7F10F063D1B22FA06F34A
:1033B00007F1110EF24120355A40B5F10F07B8D987
:1033C0004140C4F12006A040F1414140B1FBF3FC73
:1033D00003FB1C11A2FB0C45001BA94103D2BCF14D
:1033E000010C801859410F2F12D30F3FC90341EA36
:1033F0005041B1FBF3F603FB1611A2FB0645D4EBDB
:10340000C030A94102D2761E8018594146EACC3C10
:1034100007B34140C7F12006B840F1414140B1FB3C
:10342000F3F603FB1611A2FB0645001BA94102D2CD
:10343000761E8018594180EA010221FA0EF3C7F185
:10344000200462FA0EF20CFA07F05A402CFA04F14A
:103450003043F0BD80EA010221FA0EF3002162FA46
:103460000EF260465A40F0BD8C46B1FBF2F102FB11
:1034700011C31B0243EA1063B3FBF2FC02FB1C33D3
:103480001B024CEA002043EA1063B3FBF2FC02FB90
:103490001C331B024CEA002043EA1063B3FBF2FC2E
:1034A00002FB1C331B024CEA002043EA1063B3FB0F
:1034B000F2FC02FB1C324CEA002000237047FEE7BE
:1034C000D2B2203A22BF21FA02F000217047203206
:1034D000D141D04048409140D14048407047002001
:1034E0000021704762B38B0708D0521E11F8013BD0
:1034F00000F8013B00F024808B07F6D1830740F0F1
:10350000208000BF103A07D330B4B1E83810103A29
:10351000A0E83810F9D230BC530724BFB1E8081036
:10352000A0E8081044BF51F8043B40F8043BD20720
:1035300024BF31F8022B20F8022B44BF0B78037014
:103540007047121F17D35B0009D151F8043B20F8D4
:10355000023B1B0C121F20F8023BF6D20BE051F885
:10356000043B00F8013B1B0A20F8023B1B0C121F16
:1035700000F8013BF3D238BF121D521E24BF11F8D0
:10358000013B00F8013BF8D870472DE9F0410246B5
:10359000087808B902235360002353624B7891F8EE
:1035A00003E091F80780002B4B7A14BF40240024DD
:1035B0004FEA0E4E002B8B7A14BF80250025002B7E
:1035C000CB7A14BF20260026002B0B7B14BF1027BC
:1035D0000027002B8B784EEA036E8B794EEA83230B
:1035E00043EA082E0B7A14BF4FF0080C4FF0000C82
:1035F00043EA0E031C432C4334433C430B794CEA0F
:1036000004040BB14FF40053497909B14FF08051D4
:103610001C430C43146008B101205060BDE8F081E8
:10362000F0B592F801C0D37992F803E04FEA0C6C40
:10363000002B137A14BF4FF080440024002B537AE0
:1036400014BF4FF000550025002B937A14BF1026AD
:103650000026002B13784CEA836C93784CEA0343E2
:1036600043EA0E3C137992F805E04CEA832343EADF
:103670000E2C937914BF0427002743EA0C031C4344
:103680002C433443D27A3C4300EB011044EA0274E9
:103690000466F0BD80B500F00CF82C492C4A09688E
:1036A000C1F30821491CB0FBF1F0106002BD2948AC
:1036B00070472948016801F00701022909D00BD39E
:1036C000042901D002D307E0244A06E04FF4004168
:1036D00004E02349096801E0224A1168C06EC0F382
:1036E0000420401CB1FBF0F070471D480068704793
:1036F0001B4908601848016801F00701022908BF4A
:10370000FFF7C8BF70471849184808601848016893
:1037100041F4700101601748416941F40051416171
:103720000268920892000260416B490849004163B7
:10373000016A21F08051016270474FF400407047E8
:103740004FF47A70704705480068704708410E4092
:10375000B45B002000F0490294400E40B05B0020B2
:10376000AC5B0020B85B002008ED00E00001000029
:1037700088ED00E040300E40704701207047012086
:10378000704701207047B520704770470020704790
:1037900000207047002070470020704700207047CD
:1037A00000207047002070470020704701207047BC
:1037B00001207047B52070470020704700207047F7
:1037C0000020704700207047704700207047704706
:1037D000B520704700207047704700207047842054
:1037E0007047704700207047034801680878012837
:1037F00008BF02207047000054610020704700207D
:10380000704700207047002070470020704700205C
:10381000704700207047002070470020704700204C
:1038200070477047B52070470020704700207047F0
:10383000704700207047704770477047B520704749
:10384000704770470020704770477047002808D4C1
:10385000012200F01F01DFF884378A40400943F855
:103860002020704700280CD4012200F01F01DFF84F
:1038700070378A40400943F82020BFF34F8FBFF3D1
:103880006F8F7047002808D4012200F01F01DFF875
:1038900054378A40400943F82020704710B501286A
:1038A00018BF2028DFF8404705D040F28311DFF829
:1038B0003C07FCF77DFE204610BD42689388408996
:1038C000411A8B4201DA01207047002070473EB553
:1038D000012818BF202833D1012818BF20282FD154
:1038E000FFF7DCFF0446FCF7BBFD0546A06901AB12
:1038F0006A4602A904F090FD00992289206889B2E5
:1039000000F023F82846FCF7B1FDA06904F0FBFDA8
:10391000012815D1226821899088091A208A8142BC
:103920000EDBA06990F83110022903D104F072FD7A
:10393000012803DCA06900F06EFA01D100F001F863
:1039400037BDA069002104F0B9BD70B504460D462D
:103950001646FCF785FDE188A9420CD22288521A4E
:10396000521992FBF6F306FB13262680A288AA18AA
:10397000511AA180E580BDE87040FCF777BDF8B52D
:10398000012818BF20280C46154616D1FFF786FFE0
:103990000646307B10B101217173F1BD707B18B107
:1039A0003046BDE8F240A0E00FF2A51700F006F89F
:1039B00018B100F003F80028FBD1F1BDB0693B4617
:1039C0002A46214604F07DBE7CB505460E46FFF72B
:1039D00065FF012D18BF202D044640D1A069016864
:1039E00090F83200E8B904228A6400F03CF9A0693A
:1039F0000068C16C002E07D041F00401C1640B20A7
:103A0000FFF724FF052106E021F00401C1640B202B
:103A1000FFF728FF0021A0690068BDE87C4004F0A2
:103A2000D3BE04224A6300F01EF9A0690068816BCE
:103A3000002E07D041F0040181630B20FFF706FF41
:103A4000052106E021F0040181630B20FFF70AFF46
:103A50000021A0690068BDE87C4004F03CBF73BD54
:103A600038B50446DFF8880581421ED0DFF8785566
:103A7000A869A04219D12A89286899B2FFF765FF81
:103A80002A680021D18002E0284600F00FF8204685
:103A900004F0C0FC032808DA00F000FAF4DA20464B
:103AA000BDE83440012104F009BD31BD38B50446FC
:103AB000DFF84035E089658A21680246684308449A
:103AC00000F10801A06904F0B8FDA06904F0A2FCAF
:103AD000012801DDFFF735FF608AA18A401C90FBB9
:103AE000F1F201FB1200608231BDFEB50446207B7D
:103AF00068BB60680FF259064188084400F1080766
:103B0000A0696B4601AA02A904F0A8FC61688A8832
:103B10000098019D121A551B4A88088890420ED2BF
:103B20006089821AA0693346394604F0CAFD70B92B
:103B3000616860892D1A4888451901F10807A06954
:103B40003346EAB2394604F0BCFD00B96073F7BDF4
:103B500070B5DFF89454A96981421C4615D1686894
:103B60008188A14238BF8488FCF77AFC69686B8938
:103B70004A88A4B2A21892FBF3F603FB16224A80ED
:103B800069688A88141B8C80F5E670BD38B51129E8
:103B9000054609D1A869002104F09EFC0021297383
:103BA0002846BDE83240A0E7132906D1A8690121C3
:103BB00004F092FC0120287331BD28682A8984888A
:103BC000141BA4B25CB100F10802008811542868EB
:103BD000018800F06BF901808188491C8180A86907
:103BE00004F091FC20B9E989A142A8BF012105DABE
:103BF000012808D1288A844205DB0021A869BDE894
:103C0000344004F05BBC31BD10B52020FFF746FE08
:103C10000446DFF8E403A16991F83120012A09D1B3
:103C200001690A060AD504F043FE01462046BDE8B4
:103C30001040ABE7C16C21F00401C16410BD10B5A8
:103C4000DFF8B44328B92046BDE81040002104F055
:103C5000BBBD00F008F80B20FFF7F8FDE06C40F06A
:103C60000400E06410BD0B200CE680B530B9BDE85F
:103C700004400521DFF8800304F0A6BDFFF7F3FF41
:103C8000BDE802400B20EDE5F8B50C461546FFF700
:103C900005FE0646306881883289E8B2121A9142E0
:103CA00001DB0120F2BD00270EE0FCF7D9FB3168F3
:103CB00014F8012B01F1080309885A547F1C31685C
:103CC0000A88338900F0F9F8AF42EED30020F2BD44
:103CD000F8B5012818BF202805460C463AD100F057
:103CE000DDF910B9284600F06DF82846FFF7D6FD3B
:103CF00006462846FFF7D2FD012D18BF202D29D1F9
:103D0000DFF8F8120160DFF8F81241608021012D20
:103D100018BF202D0181418152D1012D16BF202DC8
:103D2000DFF8E0020020012D18BF202DB06111D175
:103D3000DFF8D402A18CA061DFF8D002E061F1814C
:103D4000E38C33828B4207D21C21304604F002FE02
:103D50000220F2BD0120F2BDB26992F831000128C3
:103D60000CD0308990FBF1F701FB1700002802BF4F
:103D700093FBF1F001FB10310029E5D121461046FB
:103D800004F090F9E8B9B069017F007E01230222B6
:103D900004F04FFE207C012807D101212846FFF7BF
:103DA00013FEB069FFF7CEFD0AE000207082F189B2
:103DB000308990FBF1F0B08200F06DF900F06BF902
:103DC0000020F2BD58B5012818BF2028044612D1A2
:103DD00000F064F9E0B9204600F03EF92046FFF714
:103DE0005DFD012C18BF202C06460DD1B06904F0F2
:103DF0001DFA10B152BD012052BD00F00BF803D1E5
:103E000000212046FFF7E0FD1C21304604F0A2FD12
:103E1000002052BDB06990F8311001297047F8B503
:103E20000128074618BF20280E463C460AD1FFF756
:103E300035FD05463846FFF74AFD2968888818B9D8
:103E40002620F2BD0120F2BDFCF70AFB07462868D8
:103E500000F108014088095C31702868418800F051
:103E600025F8418081884A1E012C18BF202C8280B1
:103E700003D1A869FFF7CFFF0AD13846FCF7F6FA5D
:103E80000020F2BD00F00AF8F7DB2846FFF70EFE2F
:103E9000A86904F0BFFA0228F4DBEEE72889E98973
:103EA0002A68A0EB41009188884270472A89491C02
:103EB00091FBF2F302FB13117047521C92FBF3FCCF
:103EC00003FB1C220A808A88521C8A80FCF7CEBA27
:103ED00010B5012818BF202813460AD10A4601460A
:103EE0000FF2150003F0A5F9002400B901242046C3
:103EF00010BD012010BD00002DE9F84F80460128BB
:103F00001CBF2028012016D191468A46FFF7C6FC27
:103F10000646002470680188084400F1080B00255B
:103F200034E04C4506DAA9EB040082B2594640461B
:103F3000FFF725FD0020BDE8F28FFCF791FA7168CC
:103F40000B881AF8012B19440A7271680A88738960
:103F5000521C92FBF3FC03FB1C220A808A88521C31
:103F60008A8009884F1EBF41FCF780FAFF0F67B1B6
:103F7000EDB26F1C3F1BFAB259464046FFF7FFFCFB
:103F800070683C19E4B200F1080B6D1CE8B24845BA
:103F9000C7D200213046FFF790FC0028CDD1307BFE
:103FA0000028F6D02220C6E7F8B501260746012FE3
:103FB00018BF202F0C4615460DD1FFF76FFC012FBF
:103FC00018BF202F05D180692A46214604F09DFAAA
:103FD00006463046F2BD0120F2BD000000E100E0DF
:103FE00080E100E080E200E08C630020409A020063
:103FF000097000F0613A0000000001407C6200207E
:1040000004630020A8630020585A0020D85A0020DA
:1040100038B50446012C18BF202C1BD1FFF73EFCFD
:10402000012C18BF202C054612D169688888002809
:10403000FBD1A86904F00EFA0028F6D1A86904F0B3
:10404000C1F98006F1D5A86904F0BCF98004ECD56B
:10405000002032BD012032BD70B50546FFF71EFCC1
:104060000646012D346818BF202D0BD1FFF7D2FE74
:1040700008D0022104F01EF90020708200F00BF835
:1040800000F009F8FCF7ECF90021A18021806180A3
:10409000E180FFF770BC3046FFF708BD80B501280E
:1040A00018BF202806D1FFF7F9FB00281CBF0068C5
:1040B000002801D1012002BD002002BDFFF7EABAAD
:1040C000890001EB401101F184410A6070478900C9
:1040D00001EB401101F18441086870472DE9F0417E
:1040E000DFF8A866DFF8A846DFF8A85630B9306BCD
:1040F00028601120FDF794F820702CE0DFF8987606
:10410000D7F8008045F60E00386000202968CA07FD
:1041100048BF0120CA0648BF40F010004A0648BF09
:1041200040F040004A0748BF40F00400C90548BFBE
:1041300040F480703060217805291CBF1120FDF704
:10414000C5F82878C1075CBF022131605FEAC870FA
:1041500044BF00203860BDE8F081DFF84016DFF88A
:10416000402638B110680860106820F47F4040F4A1
:10417000EE4000E008681060B2E0DFF82806017841
:10418000012918BF022981B00BD1DFF81C160A687B
:1041900002F00302012A02D1CA6BD303FCD503212A
:1041A000017001B0704710B504001CBF0020FFF77C
:1041B00095FF00F033F8FFF7E0FF00F027FB30BF7A
:1041C00004F080FC0020FFF7C8FF04B12EE022E0DD
:1041D00010B504001CBF0020FFF780FFDFF8B80512
:1041E000DFF8A835016845F60E020260C9074FF4F2
:1041F00020721A6044BF0021016000F00FF8FFF741
:10420000BCFF00F003FB30BF04F05CFC0020FFF7B4
:10421000A4FF04B10AE0BDE810404FE7DFF88C05C9
:10422000016841F004010160012096E7BDE81040FB
:10423000012053E7F8B5DFF87845256926694AF685
:10424000E857276025F440352069C10745F400355B
:1042500046F4403608D4A06B00F00300012812BFDA
:104260000228002000F077F82169C8070DD572B642
:10427000DFF840050760816841F080018160DFF868
:104280003805016841F4807101600120FFF765FF86
:10429000FFF773FF04202561401E2661FBD12561D5
:1042A000F1BD70B5DFF81425136801789B0900296A
:1042B000417814BF042400240029817814BF02250A
:1042C000002501B10821C6780079012E18BF00260B
:1042D00044EA83132B430B4333430343136070BD02
:1042E00010B5DFF8BC04DFF8D82401681288C1F3E8
:1042F000032102F12803491C02EB5302283201EB8F
:104300008104B2FBF4F2521E0368072A34BF12067E
:104310004FF0E06223F0EE631A4342F48012026031
:10432000DFF8A024B2F90020002A13D492B202F1DF
:10433000280302EB53024B08283203EB4103B2FB84
:10434000F3F14268072934BF0901702122F070029D
:104350001143416010BD2DE9F041DFF86C64DFF8D6
:104360006C548046306801284AF6E8500CBF01279B
:1043700000273060686AC107FCD4F46814F00304B5
:1043800002D0012200F029F8444508D1B8F1000F0D
:1043900021D12846BDE8F04100220D2190E634B934
:1043A000B8F1010F03D1DFF8FC1302200870696A2D
:1043B000C807FCD4F068800848EA8000F060686AAA
:1043C000C107FCD45FEA080218BF012200F005F81B
:1043D0000FB100203060BDE8F0810D2128466FE666
:1043E0007CB50446DFF8EC0302210160006800F0B0
:1043F0000F00022840F08C80DFF8DC13086810F111
:10440000010F13D0DFF8D403416802681160C1685E
:1044100082681160416902691160C1698269116035
:10442000416A026A1160C16A806A0160E0884B28B3
:1044300038BF00210DD3B0F5FA7F38BF4FF080515F
:1044400007D340F6C411884234BF4FF000514FF0FB
:104450004051DFF88C53DFF848632A69B4F90C0047
:10446000C343DFF880030240114341EAD37129615D
:10447000A088DFF85C1308800021306A40F080706B
:1044800030623046FFF723FE00B1042000F03FF910
:10449000706920F0C04070616846316841F00601E3
:1044A000316004F011FB9DF80100012815D19DF841
:1044B0000010022911DCDFF8EC22107868B9A96835
:1044C000DFF8240341F00101A9607369DFF81C13D0
:1044D0000B4003437361012010702089DFF8E01264
:1044E0000880A189DFF8DC020180A08800F0DBF8F9
:1044F000A07B20B1012805D1DFF8F40201E0DFF84C
:10450000F402F06060880122012100F00FF808B980
:10451000002076BDA27A02B101220521FFF75EFFDD
:104520006078FFF718FF012076BD00002DE9FC4EF2
:104530000346A3F5E160B0F5966F00F2B280B3F5E3
:10454000E16FDFF8B4424FF496600AD94FF4E166A8
:10455000009001964FF001092068060EC0F3074A4B
:104560000AE001904FF000094FF4167000902068A7
:10457000C0F3072600F0FF0ADFF824C2DCF80000D1
:10458000000F00F0030E0020002559EA0E2714D07A
:104590007F1E1DD0FF3F0ED07F1E14D0FF3F08D0DE
:1045A0007F1E0ED0FF3F02D07F1E08D015E0A0680E
:1045B0000AE0A0680DE0606806E0606809E0206934
:1045C00002E0206905E0E068050EC0F3074004E062
:1045D000E068C0F3072500F0FF00019FDDF800B0A0
:1045E000DB1BA6EB0A075F43B7FBFBF7A5EB000B52
:1045F0000BFB03F3DDF800B0B3FBFBF35744C31828
:10460000BE4228BF57454CD39D4228BF834248D362
:1046100072B1DCF810205FEA090014BF0226002600
:10462000DFF8D801024042EA07223243CCF81020DA
:10463000002933D0DFF8C8010168C9B2042904DABF
:104640006169B9F1000F10D00CE0A169BEF1030F50
:1046500027D8DFE80EF00A070402090E07E0C1F3CD
:10466000074104E0C1F3072101E001F0FF01090364
:1046700031F4704015D1DCF8202022F4704211434F
:10468000CCF82010E72BDCF8180028BFE723400AFD
:1046900049EA430141EA4020CCF818000120BDE876
:1046A000F68E0020FBE738B5DFF8F420536A146873
:1046B000E5074FF0FF3103F0070312D5022B10D3AB
:1046C000142815D3143814281FD30F21106820F490
:1046D0007F4040EA012040EA01301060BDE83140EF
:1046E000FEE51468E50709D4022B07D20A2801D297
:1046F0000321EBE70A380A2807D3E6E71468E50741
:10470000E4D5022BE2D22828DFD20721DEE738B534
:104710000446234D00212846FFF7D9FC686ADFF8DC
:10472000B010C00844EAC0046C620888BDE832409A
:10473000B9E730B5022100220300324BDC6A08BF22
:104740000021012C03D14AF6E8550122DD6202283E
:1047500004D1186820F07400186003E01C6844F06D
:1047600074041C60986B40F0080098632648046845
:1047700024F4406444EA81240460986B20F008002B
:1047800098630AB10020D86230BD000060400E403E
:10479000BF7F0020C06B002080410E40C46B002012
:1047A0004C300E40BE7F002040300E4010ED00E047
:1047B00008300E4090310E4088300E4018300E40C8
:1047C000847F0020887F002034300E4054300E401B
:1047D000867F002038300E401C83E00F3880E00FC9
:1047E0003C300E40FEFFFFCFB4C0400B000F0EF078
:1047F000372110B7774020571883E00FFD80FFFF67
:104800000082E00F64310E403C400E40704789004A
:1048100001EB401101F184410A6070470A460168CA
:10482000CB0600D5704710B547F230518368DC07DE
:1048300003D5002918BF491EF8D1016801F0010114
:10484000914203D0BDE810400021E0E710BD0168AF
:10485000CA0707D581688A0704D48168CA07FCD4CF
:10486000012242607047F0B50B78024603B1012384
:1048700048780028887814BF022400240028C878CB
:1048800014BF042500250028087914BF0826002637
:104890000028487914BF202700270028887914BFF2
:1048A0004FF0400C4FF0000C00B1102023432B437D
:1048B00033433B434CEA03030343C8790C7A43EA8E
:1048C0000033C87A43EA042308B14FF000404C7A21
:1048D000897A40EA044040EA0160034347F23050DD
:1048E0009168CC0703D5002818BF401EF8D113608B
:1048F000F0BD002070470020704770477047F0B44B
:104900000246106895681318506803EB5004C007FE
:1049100021D54D441FE0F0BC02F10C00704713F8A4
:10492000017B05F8017B491EF9D1A0B1B60813F847
:10493000011B06F00306032E08BF13F8016B01EB01
:1049400006214942801C294405D011F8016B05F865
:10495000016B401EF9D1A342DDD013F8016B16F0B4
:10496000030104BF13F8011BC91C30090F28DAD159
:1049700013F8010B0F30D6E700B10C30704770B55B
:1049800004000D4602D0254E307808B1002070BDDD
:104990007460204600F089FA2946204600F041FA6A
:1049A000002814BF01210021317070BD0120704723
:1049B0000020704704F0D0BA0846114600F09ABAB9
:1049C00070470846114605F055BA0220704700208E
:1049D000704700207047012070470020704700009A
:1049E00038B50D4611461A460C4BD3F8084004B9A9
:1049F00027A4034624682846A04732BD0748D0F8BC
:104A0000080000B922A04068004700000348D0F821
:104A1000080000B91EA0806800470000747C0020D8
:104A200038B500F029F82A462146BDE8384004F0A0
:104A300020BB70B500F013F800F00DF8BDE8704031
:104A400004F071BB70B500F00AF800F004F8BDE89E
:104A5000704004F019BB33462A46214670470C4685
:104A600015461E4688E710B50C46FFF785FF214620
:104A7000BDE8104000F078BC0C4615467CE710B548
:104A80000C46FFF779FF2146BDE8104005F0A4BAB7
:104A9000C19400003D950000499500006D9500000F
:104AA00083950000CB490000CF490000D3490000A6
:104AB000D7490000DB49000005F096B900B10C3081
:104AC000704710B500F060F82146BDE8104004F0D2
:104AD0000DBCFEB500F01CF82046FFF7EFFF0646C0
:104AE000F76F38000ED16946204600F041F89DF876
:104AF00000102A46204605F073FA0146304604F0BD
:104B0000D1FDFEBD0023002229463046B847FEBD38
:104B100004460D46002005F0C8BA3EB50446FFF72E
:104B2000CDFF05466946204600F022F8284604F0ED
:104B300017FEFF28024601D114483EBD9DF8001023
:104B4000204605F0C5FA3EBD38B50D4604466888D6
:104B500005F0ABFA2046FFF7B1FFC16F09B10220A3
:104B600032BD2946BDE8344004F078BD05F09EBA58
:104B700010B500F009F82146BDE8104004F0E6BD8C
:104B800000B10C3004F08DB80C4697E70080FFFFB1
:104B900000B10C30704738B504460D4605F0F0FA08
:104BA0000021A5616161BDE8324005F0EDBA70B544
:104BB00005460E4605F0E4FAA9690E40340069691D
:104BC00018BF01240E436E6105F0DEFA14B1002017
:104BD000802170BD0020002170BD38B504460D460F
:104BE00005F0CEFAA16962690D4022EA050565610A
:104BF00005F0CAFA284632BD80B5FFF7C9FF406903
:104C000002BD10B5FFF7C4FF04460121FFF7E5FF21
:104C10002046BDE8104004F0CEBC10B500F006F808
:104C200004F00111FFF7B7FF002010BD0C46AFE7FD
:104C300038B5FFF7FBFF00F006F821462846BDE82F
:104C4000344005F0C3BA05464FF48031C5E7000093
:104C500000B10C30704700007FB500F0ABF8237E48
:104C6000627EA17E054605F048FB684604F10C0112
:104C70000C22FEF737FC6946284605F0FDF8211D99
:104C8000284601F030F9060005D100BF60A1284692
:104C900005F0ACF80646300003D1284605F0D6FAF8
:104CA00006462168284600F019F8304604B070BD69
:104CB00080B5FFF7CDFFBDE8024005F0B3BA38B5C7
:104CC000FFF7C6FF054604F047F90024012812BF8C
:104CD0000224284605F09AFA204632BDF0B589B084
:104CE00005460C464FEA0D0040A12422FEF70AFCBF
:104CF00004B96C46002601E0010006D1F0B234F898
:104D00001010F2B2284605F0BAFA0100F7B206D147
:104D100004EB4700F2B2C188284605F0BEFA010054
:104D200007D104EBC70000F10C01F2B2284605F0F0
:104D3000CDFA761CF1B20329DED309B0F0BD38B547
:104D40001546032D0C4601D3012032BDFFF780FF2D
:104D50002A462146BDE8384005F091BA38B51546D7
:104D6000032D0C4601D3012032BDFFF771FF2A4607
:104D70002146BDE8384005F090BA38B51546032DF8
:104D80000C4601D3012032BDFFF762FF2A462146BF
:104D9000BDE8384005F09ABA38B500F00BF800F0DD
:104DA0001DF828B121462846BDE8344005F09CBADC
:104DB000022032BD0C464BE770B50C461546FFF796
:104DC00047FF064605F02BFA30B12A462146304609
:104DD000BDE8704005F0A9BA022070BD054605F097
:104DE0001EBA05F0C6BA084605F0D9BAFFFFFFFFA4
:104DF000FFFFFFFFFFFFFFFF0000000000000000BB
:104E000000000000000000000000000000000000A2
:104E1000000002080000000000B10C30704705F0EF
:104E200043B938B50D460446002100F020FD29465F
:104E3000204603F047FF08B1002032BD204632BDB6
:104E400070B50D00064614BF012400241F21204622
:104E500005F0E2FA284605F02AF9002086F8C40099
:104E6000F066B5661F21204605F0D6FA4FF6FF74AE
:104E70000020E96888420CD2AA68182111FB00F1D1
:104E80001144C989A14201DA0C0002D0401CC0B211
:104E9000EFE7DFF8AC0200210160416030462146B7
:104EA00000F095F8204670BD704710B5044603F039
:104EB0009FFF002C0CBF002004F10C00406F01008C
:104EC000DFF87C1208BFDFF87C02886010BD38B5BF
:104ED00000F077F9054604F03FF8012801D00220E0
:104EE00032BD21462846BDE8344003F0D2BF944885
:104EF0000068704710B50C4603F0DCFF1CB104F0ED
:104F00002BF80128FBD110BD2DE9F04BC26E1AB170
:104F100003898AB29A4251D0846E002C1CBFA268C9
:104F2000002A01D0E26812B90320BDE8F08B002509
:104F3000D0F87C80A9460F46CB4606460021E068A3
:104F400081453ED2A26802EB0B00BAB2C3899A42F5
:104F500022BF028ABBB29A4218D305465FEA080014
:104F6000B5F9122003D0B6F9F600824229DAFF2003
:104F700047F6FF739A4205D096F8A810A6F10C00E8
:104F800005F02EF83279904201461AD209F1010952
:104F90000BF1180BD3E75FEA080004D000232A4680
:104FA00000213046C04706F1B8032A46B9B2304660
:104FB00004F0E6FB3781F56686F8B4400020BDE8D2
:104FC000F08B002D0C46E6D10120BDE8F08BF0B54A
:104FD00081B004460D4605F0D3F80646A9B2204636
:104FE000FFF792FF070006D100230022A9B2204656
:104FF00000F007F80746304605F0C6F8384601B01D
:10500000F0BD2DE9F84F06460F46904604F0A6FF86
:105010004B4DB5F80CB0002404F0BBFF4FF0000A74
:10502000A14618B16C6004F0AFFF03E05FFA88F0AE
:1050300000B16C60F06E6968884205D120B1B8B2E9
:10504000584508BF002075D003F086FF012803D023
:1050500001210120FFF74EFF2868E0B1B26E9042B7
:1050600009D1696839B1F36E994204D1B8B2834568
:105070001BD0012419E0016869B1126891420AD17C
:10508000F16E0A6869684FF0010911B1096891422F
:105090000BD0416805E0F06EB16E026809684FF010
:1050A0000109304604F01AFE8246D6F87CC0BCF1F5
:1050B000000F0BD1317996F8B4009DF800208142A1
:1050C00088BF0146304604F021FB04E06B46002215
:1050D00000213046E047BAF1000F5FFA88F814D19A
:1050E000B06E286044EA0804F16E696059EA04046D
:1050F0000BD049EA0800411E8941BFB2C943EF60A5
:10510000C90F304604F06DFB824659EA080010D002
:10511000BAF101008041C00F332105F07DF99DF8FF
:105120000010304604F0EAFDF16EAA68A6F10C000A
:105130009047504601B0BDE8F08F008970470000ED
:10514000605E0020A94E000001281CBF0428022830
:1051500001D1012070470020704738B500F02DF8CC
:1051600040B16878FFF7F0FF20B1297868780143F3
:10517000490701D5012032BD29462046BDE834400B
:1051800004F01EBA10B500F01CF82146BDE810402E
:10519000E3E738B500F011F838B16878FFF7D4FFCD
:1051A00000281CBF6878042801D1012032BD29469F
:1051B0002046BDE8344004F026BA0D46044628785F
:1051C000C2E70C4628E610B5FFF7FBFF2146BDE815
:1051D0001040DEE7FEB5DDE9086714461D46FFF71F
:1051E0001BFECDE9006722462B4603F0C4FDFEBD41
:1051F00010B5FFF7E6FF2146BDE8104004F052BDB0
:105200000020704738B51546104A517804462220D0
:10521000FFF771FB2046FCF799FE04466DB12000B4
:105220000BD00B49087818B10A480121017004E03D
:1052300000220021204600F0CEF8204632BD704703
:10524000704770470449087070470000B05C002048
:10525000B75F0020B85F0020E77F00207047012083
:1052600070470120704701207047000000B10C30EA
:10527000704770B500F007F833462A462146BDE86E
:10528000704004F0A1BC0C4615461E46EEE738B54A
:1052900000F006F82A462146BDE8384004F0BFBCBD
:1052A0000C461546E2E70846114604F0E7BB00B19C
:1052B0000C3004F003BC00B10C3004F002BCF8B5B3
:1052C000069C0D4616461F46FFF7D0FF23463A467A
:1052D0003146284601B0BDE8F04003F091BD000022
:1052E00080B54FF40071ADF800106A460649FFF72B
:1052F000CEFFBDF80010B1F5007F01D0012002BD46
:10530000022808BF002002BD807C00207047FBF708
:1053100061BD11490A68130305D44968C1F3080146
:10532000018001207047002070477CB50B4E0C4671
:105330004FF6FF753188ADF8005002237F22684692
:1053400005F059F9BDF80000A84202D020800120E4
:1053500076BD002076BD0000B481E00F04D90200C4
:1053600000B10C3004F03EB838B50D46044689B2A1
:10537000FFF72DFE010005D1A9B22046BDE834405B
:1053800003F0B7BF32BD0000DFF8400400214180C8
:1053900001710022FF2141718171028142810170FE
:1053A0004270704770B5402804461546DFF81C640B
:1053B00003D1F1782A20FFF79EFA280018BF0120B8
:1053C00070703470DFF808040078FBF726F8BDE849
:1053D0007040FBF70DBA70B58D281CBF87288E284A
:1053E00004460D46164601D1FFF729FF32462946ED
:1053F0002046BDE87040D5E7F8B5DFF8CC63FBF791
:105400002FF806F17E052C78FF2C7CD0FF21297027
:10541000FBF72CF820001CBF402C8F2C19D101F079
:10542000A2FE400915D0701C05F082F900F440601E
:10543000B0F5406F04D1B11D002005F08FFA04E0F3
:10544000B01D05F075F900F0A7FD31780D3105F0BC
:1054500034FD002CA87816BF8F2C012700270228C6
:1054600003D040F2171100F097F88D2C18BF872C4D
:1054700003D08E2C1CBF00202871380012D030467B
:1054800000F0E1F870B1687840B10121A9702921DC
:10549000BDE8F440DFF83C03FAF7E4BE00F089F918
:1054A00031202DE000F085F9402C0ED1FFF7DBFE16
:1054B000E878411EE97000B3687905F0B1FD014656
:1054C0000022042005F0B6FE14E08D2C1CBF872CB2
:1054D0008E2C12D1687905F0A3FD01460022202010
:1054E00005F0A8FE287940B1401E2871C0B208B965
:1054F000B9494870BDE8F14051E007B100242046A9
:10550000BDE8F240B2E0FAF7B1FFA878032804BF83
:10551000002000F0ABF8688958B1FAF7A1FF6C8958
:1055200000216981FAF7A2FFE2B200211D2005F0F7
:10553000BDFE06F1840001F0C6FCFF2804460FD032
:10554000FAF78EFF29894A1E2A81FAF78FFF204633
:1055500006F00EF9A87818B9BDE8F14006F00EB8CB
:10556000F1BD49E79D4A1178002900D0704780B508
:1055700001231028137003D04FF4CC7100F00CF805
:105580009548002141700122BDE808404FF47A712E
:105590008D480CE10000000096A0FBF709B880B52B
:1055A000012006F05DFB8D480021017021208C490F
:1055B000FFF7A1F948B101280DD002280BD1002234
:1055C00000218E20FFF7EEFE05E001224FF47A71F4
:1055D0007D4800F0ECF8BDE80240002006F040BB3A
:1055E0007CB505460020784E8DF8000006F1800459
:1055F000207818B140F2EB11FFF7CEFF02202070A7
:10560000E5706A463146284605F095FE72494870B5
:1056100074487549027862700878A070FFF7BFFF80
:1056200073BD06F055BA80B5020008BF0122120111
:105630006E49002006F02CFB002002BD6B490020C3
:1056400006F064BB704710B5441C204605F070F8A6
:1056500000F00700032807D1204605F0A1FC205CDC
:10566000042801D1012010BD002010BD38B504462A
:10567000554D7E220021284606F0C1FB002005F88A
:10568000800F05F07BFFE9782046BDE8344005F047
:1056900076BFF8B50D466F1F0446FFB21646E05DB3
:1056A000FCF774FB2178FCF772FBE055FCF70BFF6D
:1056B00060B13EB12046FFF7C6FF18B1607840F0F8
:1056C000200002E0607800F0DF006070294620468C
:1056D00001F0D0F90146FF2926D03B4D444E05F19B
:1056E0008404204601F0DAFB35F8860F401C288040
:1056F0003188288881420BD26988491C698007E07B
:10570000204601F0E0FB01F032F92888411E298093
:10571000328828888242F3D32D490878FAF77DFE33
:10572000BDE8F140FBF764B8F1BD10B5264C94F824
:105730008000012807D127480021017000F039F8C6
:10574000032184F8801010BD10B522490020087094
:105750000024FAF785FE1C4991F88020012A03D124
:105760000322012481F88020FAF780FE2CB100F09A
:1057700020F8BDE81040312078E710BD124890F8BD
:105780008010481E8041C00F7047FCF778BDFCF7C1
:1057900073BD80B50C49B1F8860030B901F18400C1
:1057A00001F0C8FB10B1012002BD002002BDFFF7CF
:1057B00029BDFCF74EBD044890F88010012901D1A5
:1057C0000120704700207047A87B0020267C002025
:1057D000DB7F0020347C0020B05C0020E67F0020CE
:1057E00065550000445F0020E57F0020235600003F
:1057F000FE5E00206C6F7765722D6D61632D6566AE
:105800007233322E630000004901020081B003D4DC
:10581000DFF8AC04815406E0DFF8A80402F00F02C0
:10582000104400F8041C01B0704700F0070010B5E8
:10583000C0F10703042B28BF0323C41C072C34BF6B
:105840000020001F012404FA03F35B1E194081406D
:1058500004FA00F0401E1040084310BD890001EB1F
:10586000401101F184410A60704700207047704781
:105870007CB572B6FDF724FADFF84C04DFF84C442F
:105880004169216000F0C7F901466FF00B00FFF796
:10589000BBFF00F0C0F901466FF00A00FFF7B4FF4C
:1058A00000F0B9F901466FF00900FFF7ADFF00F015
:1058B000AAF901466FF00800FFF7A6FF00F0A3F970
:1058C00001466FF00700FFF79FFF00F09CF90146CB
:1058D0006FF00600FFF798FF00F095F901466FF0B2
:1058E0000500FFF791FF0022022100F08EF901462A
:1058F0006FF00400FFF788FF00F091F901466FF0A8
:105900000300FFF781FF00F07EF901466FF002000F
:10591000FFF77AFF0022072100F077F901466FF0C8
:105920000100FFF771FF00F07AF901464FF0FF30F8
:10593000FFF76AFF00F073F901460020FFF764FFEC
:105940000022032100F061F901460120FFF75CFF0E
:1059500000F05DF901460220FFF756FF00F05FF905
:1059600001460320FFF750FF00F059F901460420DB
:10597000FFF74AFF00F053F901460520FFF744FF07
:1059800000F04DF901460620FFF73EFF00F047F911
:1059900001460720FFF738FF00F041F901460820D3
:1059A000FFF732FF00F03BF901460920FFF72CFF1B
:1059B00000F035F901460A20FFF726FF00F02FF925
:1059C00001460B20FFF720FF00F029F901460C20CB
:1059D000FFF71AFF00F023F901460D20FFF714FF2F
:1059E00000F01DF901460E20FFF70EFF00F017F939
:1059F00001460F20FFF708FF00F011F901461020C3
:105A0000FFF702FF00F00BF901461120FFF7FCFE43
:105A100000F005F901461220FFF7F6FE00F0FFF84E
:105A200001461320FFF7F0FE00F0F9F801461420BC
:105A3000FFF7EAFE00F0F3F801461520FFF7E4FE59
:105A400000F0EDF801461620FFF7DEFE00F0E7F863
:105A500001461720FFF7D8FE00F0E1F801461820B4
:105A6000FFF7D2FE00F0DBF801461920FFF7CCFE6D
:105A700000F0D5F801461A20FFF7C6FE00F0CFF877
:105A800001461B20FFF7C0FE00F0C9F801461C20AC
:105A9000FFF7BAFE00F0C3F801461D20FFF7B4FE81
:105AA00000F0BDF801461E20FFF7AEFE00F0B7F88B
:105AB00001461F20FFF7A8FE00F0B1F801462020A4
:105AC000FFF7A2FE00F0A3F801462120FFF79CFE9D
:105AD00000F099F801462220FFF796FE00F093F8B7
